S00E00006C61622031622E7372656334
S11300000C9434000C943E000C943E000C943E007E
S11300100C943E000C943E000C943E000C943E0064
S11300200C943E000C943E000C943E000C943E0054
S11300300C943E000C943E000C943E000C943E0044
S11300400C943E000C943E000C943E000C943E0034
S11300500C943E000C943E000C943E000C943E0024
S11300600C943E000C943E0011241FBECFEFD8E048
S1130070DEBFCDBF0E9440000C9465000C940000CC
S11300808FEF8AB914B840E050E0E1E070E06FEF20
S1130090189B07C08E2F4130510509F4872F482F34
S11300A050E04130510511F46BB904C041155105BC
S11300B009F41BB828EE33E005C00197F1F721508D
S11100C0310931F388EE93E0F8CFF894FFCFC6
S9030000FC
