:100000000C9434000C943E000C943E000C943E0082
:100010000C943E000C943E000C943E000C943E0068
:100020000C943E000C943E000C943E000C943E0058
:100030000C943E000C943E000C943E000C943E0048
:100040000C943E000C943E000C943E000C943E0038
:100050000C943E000C943E000C943E000C943E0028
:100060000C943E000C943E0011241FBECFEFD8E04C
:10007000DEBFCDBF0E9440000C948E000C940000A7
:10008000CF93DF93CDB7DEB728970FB6F894DEBFD6
:100090000FBECDBF8AE290E02FEFFC0120838BE200
:1000A00090E025E5FC0120831A82198212C01C828F
:1000B0001B8205C08B819C8101969C838B838B81E5
:1000C0009C81883E9340B4F389819A8101969A83FA
:1000D000898389819A81883E93404CF38BE290E03A
:1000E0002AEAFC0120831E821D8212C018861F820C
:1000F00005C08F819885019698878F838F81988519
:10010000883E9340B4F38D819E8101969E838D83BA
:100110008D819E81883E93404CF3C1CFF894FFCFF0
:00000001FF
