:020000040800F2
:10000000780600208901000891010008930100088A
:100010009501000897010008990100080000000000
:100020000000000000000000000000009B0100082C
:100030009D010008000000009F0100087D110008DC
:10004000A3010008A3010008A3010008A301000800
:10005000A3010008A3010008A3010008A3010008F0
:10006000A3010008A3010008A3010008E905000896
:10007000A3010008A3010008A3010008A3010008D0
:10008000A3010008A3010008A3010008A3010008C0
:10009000A3010008A3010008A3010008A3010008B0
:1000A000A3010008A3010008A3010008A3010008A0
:1000B000A3010008A3010008A3010008A301000890
:1000C000A3010008A3010008A3010008A301000880
:1000D000A3010008A3010008A301000829130008D8
:1000E000A3010008A3010008A301000800F002F822
:1000F00000F03AF80AA090E8000C82448344AAF188
:100100000107DA4501D100F02FF8AFF2090EBAE885
:100110000F0013F0010F18BFFB1A43F0010318473B
:10012000881B0000A81B0000103A24BF78C878C1C3
:10013000FAD8520724BF30C830C144BF04680C60ED
:10014000704700000023002400250026103A28BF35
:1001500078C1FBD8520728BF30C148BF0B60704739
:100160001FB51FBD10B510BD00F031F81146FFF7E7
:10017000F7FF01F0A5FA00F04FF803B4FFF7F2FF24
:1001800003BC00F057F800000948804709480047C1
:10019000FEE7FEE7FEE7FEE7FEE7FEE7FEE7FEE737
:1001A000FEE7FEE704480549054A064B7047000094
:1001B000C1120008ED000008780000207806002039
:1001C000780200207802002070477047704775461B
:1001D00000F02CF8AE4605006946534620F00700B3
:1001E000854618B020B5FFF7DDFFBDE820404FF091
:1001F00000064FF000074FF000084FF0000BAC4630
:10020000ACE8C009ACE8C009ACE8C009ACE8C0097A
:1002100021F007018D46704710B50446AFF300800A
:100220002046BDE81040FFF7A8BF00000048704717
:100230000800002001491820ABBEFEE7260002009E
:100240007047000082B001908DF803109DF8030004
:1002500030B1FFE70199886840F00100886005E04F
:100260000199886820F001008860FFE702B07047BC
:1002700082B001908DF803109DF8030030B1FFE7C4
:100280000199886840F48070886005E00199886869
:1002900020F480708860FFE702B0704780B584B0BA
:1002A0000390039842F20041C4F2010188420BD14D
:1002B000FFE74FF400700290012100F0C9FD0298A1
:1002C000002100F0C5FD27E0039842F60001C4F2CA
:1002D000010188420BD1FFE74FF4806001900121BA
:1002E00000F0B6FD0198002100F0B2FD13E0039884
:1002F00043F60041C4F2010188420BD1FFE74FF4FD
:1003000000400090012100F0A3FD0098002100F0C2
:100310009FFDFFE7FFE7FFE704B080BD82B00190DB
:1003200000208DF80300019880684007002804D55C
:10033000FFE701208DF8030003E000208DF80300A3
:10034000FFE79DF8030002B07047000082B0019003
:1003500000208DF80300019880680007002804D56C
:10036000FFE701208DF8030003E000208DF8030073
:10037000FFE79DF8030002B07047000084B00390CF
:100380000291002001908DF80300039840680190CD
:1003900001984FF6FF61CFF6F07108400190029985
:1003A0000868097940EA0121019808430190019801
:1003B0000399486003988068019001984FF2FD719D
:1003C000CFF6F171084001900299C8688A6810431D
:1003D000497940EA41010198084301900198039945
:1003E00088600398C06A0190019820F47000019021
:1003F0000298007C411E9DF8030008438DF803001D
:100400009DF80310019840EA01500190019803996A
:10041000C86204B07047000084B003908DF80B10E0
:100420008DF80A208DF809300020019000909DF889
:100430000B000A2821DBFFE70398C06801909DF8B4
:100440000B0000EB4000A0F11E0107208840009047
:1004500000990198884301909DF809009DF80B10C0
:1004600001EB41011E398840009000990198084332
:10047000019001980399C8601DE0039800690190FC
:100480009DF80B0000EB4001072088400090009988
:100490000198884301909DF809009DF80B1001EB2D
:1004A000410188400090009901980843019001980B
:1004B00003990861FFE79DF80A00062820DCFFE7A2
:1004C0000398406B01909DF80A0000EB8000411FEB
:1004D0001F208840009000990198884301909DF862
:1004E0000B009DF80A1001EB81010539884000904E
:1004F000009901980843019001980399486347E0E7
:100500009DF80A000C2821DCFFE70398006B01909E
:100510009DF80A0000EB8000A0F123011F20884015
:10052000009000990198884301909DF80B009DF878
:100530000A1001EB8101233988400090009901984D
:100540000843019001980399086320E00398C06A6A
:1005500001909DF80A0000EB8000A0F141011F20EE
:100560008840009000990198884301909DF80B0005
:100570009DF80A1001EB81014139884000900099F3
:1005800001980843019001980399C862FFE7FFE7CB
:1005900004B0704781B000900099886840F008006E
:1005A000886001B07047000082B001908DF80310A0
:1005B0009DF8030030B1FFE70199886840F4A0007E
:1005C000886005E00199886820F4A0008860FFE752
:1005D00002B0704781B000900099886840F0040034
:1005E000886001B07047000080B5022000F018F963
:1005F00048B1FFE740F27401C2F200010120086037
:1006000000F002F8FFE780BD81B000909DF8030084
:10061000C006002807D5FFE7009840F20441C4F265
:100620000201086005E000980421C4F2020108609C
:10063000FFE701B07047000082B001908DF8031011
:100640009DF8030030B1FFE70199086840F0010010
:10065000086006E0019908684FF6FE7210400860D5
:10066000FFE702B07047000081B000900099086871
:100670004FF6FE7210400860009900200860009953
:100680004860009988600099C86000980821C4F209
:100690000201884208D1FFE70421C4F20201086880
:1006A00040F00F000860B9E000981C21C4F202017C
:1006B000884208D1FFE70421C4F20201086840F033
:1006C000F0000860A9E000983021C4F202018842DD
:1006D00008D1FFE70421C4F20201086840F4706009
:1006E000086099E000984421C4F20201884208D1D0
:1006F000FFE70421C4F20201086840F4704008607A
:1007000089E000985821C4F20201884208D1FFE72D
:100710000421C4F20201086840F47020086079E006
:1007200000986C21C4F20201884208D1FFE704213D
:10073000C4F20201086840F47000086069E00098A3
:100740008021C4F20201884208D1FFE70421C4F2EB
:100750000201086840F07060086059E0009840F2BB
:100760000841C4F20201884209D1FFE740F2044186
:10077000C4F20201086840F00F00086047E00098EA
:1007800040F21C41C4F20201884209D1FFE740F265
:100790000441C4F20201086840F0F000086035E04E
:1007A000009840F23041C4F20201884209D1FFE7CB
:1007B00040F20441C4F20201086840F4706008602D
:1007C00023E0009840F24441C4F20201884209D17A
:1007D000FFE740F20441C4F20201086840F47040AF
:1007E000086011E0009840F25841C4F202018842CA
:1007F00009D1FFE740F20441C4F20201086840F465
:1008000070200860FFE7FFE7FFE7FFE7FFE7FFE78C
:10081000FFE7FFE7FFE7FFE7FFE7FFE701B070470C
:1008200083B0029000208DF8070000909DF80B0027
:10083000C006002807D5FFE740F20040C4F20200DE
:100840000068009005E00020C4F2020000680090FB
:10085000FFE700980299084204D0FFE701208DF8D5
:10086000070003E000208DF80700FFE79DF8070070
:1008700003B0704783B0029001918DF803209DF87A
:10088000030030B1FFE7019A02990868104308603D
:1008900005E0019A0299086890430860FFE703B0F9
:1008A0007047000080B583B0029001910020009055
:1008B000029800680090009847F6F0718843009015
:1008C0000199D1F820E08868D1F810C04B698A6995
:1008D00040EA0E0040EA0C0018431043CA69104376
:1008E0004A6A1043896A01430098084300900098BF
:1008F000029908600198C0680299486001980068F0
:1009000002998860019840680299C86003B080BD70
:1009100081B00090009840F27001C2F200010860BE
:10092000FFE740F27000C2F20000006808B1FFE784
:10093000F7E701B07047000088B0079006910020EB
:100940000590049003900290019000900698C07862
:1009500000F00F0005900698C078C006002806D564
:10096000FFE706988178059808430590FFE7069809
:10097000007800284BD0FFE707980068019000201E
:100980000390FFE7039807283DD8FFE7039901206C
:1009900088400290069800880299084004900498C4
:1009A000029988422AD1FFE70398800002900299B9
:1009B0000F20884000900099019888430190059885
:1009C000029900FA01F10198084301900698C07855
:1009D000282806D1FFE7039901208840079948613C
:1009E0000BE00698C078482806D1FFE7039901205C
:1009F000884007990861FFE7FFE7FFE7FFE70398F3
:100A000001300390BEE7019807990860FFE7069858
:100A10000088B0F5807F50DBFFE7079840680190C1
:100A200000200390FFE70398072842D8FFE70398C8
:100A300000F1080101208840029006980088029980
:100A4000084004900498029988422DD1FFE703984A
:100A50008000029002990F20884000900099019830
:100A6000884301900598029900FA01F10198084322
:100A700001900698C078282808D1FFE7039800F174
:100A800008010120884007994861FFE70698C0786F
:100A9000482808D1FFE7039800F1080101208840A9
:100AA00007990861FFE7FFE7FFE70398013003902C
:100AB000B9E7019807994860FFE708B07047000060
:100AC00082B00190ADF8021000208DF8010001986D
:100AD0008068BDF80210084204D0FFE701208DF8BD
:100AE000010003E000208DF80100FFE79DF8010000
:100AF00002B0704782B00190ADF802108DF801206D
:100B00009DF8010028B1FFE7BDF8020001990861D6
:100B100004E0BDF8020001994861FFE702B07047A8
:100B200080B582B0019040F60000C4F201007F2140
:100B300001220092FFF7DEFF009A41F20000C4F2AA
:100B400001004FF40051FFF7D5FF0198C00840F2B3
:100B50007001C2F200010860FFE740F27000C2F2CB
:100B60000000006808B1FFE7F7E741F20000C4F2B7
:100B700001004FF400510022FFF7BCFF0198C008AC
:100B800040F27001C2F200010860FFE740F270001D
:100B9000C2F20000006808B1FFE7F7E740F6000086
:100BA000C4F2010001210022FFF7A4FF0198C00850
:100BB00040F27001C2F200010860FFE740F27000ED
:100BC000C2F20000006808B1FFE7F7E740F6000056
:100BD000C4F2010002210022FFF78CFF0198C00837
:100BE00040F27001C2F200010860FFE740F27000BD
:100BF000C2F20000006808B1FFE7F7E740F6000026
:100C0000C4F2010004210022FFF774FF0198C0081C
:100C100040F27001C2F200010860FFE740F270008C
:100C2000C2F20000006808B1FFE7F7E740F60000F5
:100C3000C4F2010008210022FFF75CFF0198C00800
:100C400040F27001C2F200010860FFE740F270005C
:100C5000C2F20000006808B1FFE7F7E740F60000C5
:100C6000C4F2010010210022FFF744FF0198C008E0
:100C700040F27001C2F200010860FFE740F270002C
:100C8000C2F20000006808B1FFE7F7E740F6000095
:100C9000C4F2010020210022FFF72CFF0198C008B8
:100CA00040F27001C2F200010860FFE740F27000FC
:100CB000C2F20000006808B1FFE7F7E740F6000065
:100CC000C4F2010040210022FFF714FF02B080BDF2
:100CD00084B003900020029001900F2000900398B0
:100CE000C078C0B3FFE74EF60C50CEF200000068AB
:100CF000C043C0F3022002900298C0F104000190AA
:100D000000980299C8400090039840780199884063
:100D1000029003988078009901400298084302905D
:100D20000298000102900298039909784EF200425D
:100D3000CEF2000288540398027802F01F010120CD
:100D400088404EF20011CEF2000141EAD20121F0BA
:100D5000030108600FE00398027802F01F010120F0
:100D600088404EF28011CEF2000141EAD20121F01A
:100D700003010860FFE704B07047000082B00190F3
:100D80000020009041F20401C4F2020108680090C2
:100D9000009820F440400090019A00981043009081
:100DA0000098086002B0704782B001908DF803107F
:100DB0009DF8030048B1FFE7019A41F21401C4F223
:100DC000020108681043086008E0019A41F214012A
:100DD000C4F20201086890430860FFE702B0704760
:100DE00082B001908DF803109DF8030048B1FFE731
:100DF000019A41F21C01C4F2020108681043086024
:100E000008E0019A41F21C01C4F202010868904313
:100E10000860FFE702B0704782B001908DF80310C0
:100E20009DF8030048B1FFE7019A41F21801C4F2AE
:100E3000020108681043086008E0019A41F21801B5
:100E4000C4F20201086890430860FFE702B07047EF
:100E500082B001908DF803109DF8030048B1FFE7C0
:100E6000019A41F20C01C4F20201086810430860C3
:100E700008E0019A41F20C01C4F2020108689043B3
:100E80000860FFE702B0704786B00590002004902C
:100E900003900290019041F20400C4F20200006845
:100EA00000F00C0004900498009040B1FFE7009817
:100EB00004280BD0FFE7009808280ED047E00599DA
:100EC00041F20020C0F27A00086047E0059941F243
:100ED0000020C0F27A00086040E041F20400C4F251
:100EE0000200016801F470110391006800F4803081
:100EF00002900399022000EB91400390029848B9B8
:100F0000FFE7039840F60011C0F23D014843059900
:100F100008601BE041F20400C4F202000068800394
:100F2000002809D5FFE7039840F60011C0F23D0103
:100F300048430599086008E0039841F20021C0F297
:100F40007A01484305990860FFE7FFE706E0059945
:100F500041F20020C0F27A000860FFE741F204008D
:100F6000C4F20200016801F0F0010491049909093A
:100F70000491049A41F69841C0F600018A5C0192FE
:100F8000059B1A68DDF804C022FA0CF25A60026868
:100F900002F4E0620492049A120A0492049A8A5CAF
:100FA0000192059B5A68DDF804C022FA0CF29A609F
:100FB000026802F460520492049AD20A0492049ADB
:100FC000895C0191059A5168019BD940D160006804
:100FD00000F4404004900498800B0490049941F67A
:100FE0008440C0F60000405C01900599C868019AF1
:100FF000B0FBF2F0086106B07047000080B500F069
:1010000001F880BD84B000200390029041F20001FD
:10101000C4F20201086840F480300860FFE741F242
:101020000000C4F20200006800F40030029003984F
:1010300001300390FFE702990020019039B9FFE7E2
:101040000398B0F5A06018BF01200190FFE7019858
:10105000C0070028E3D1FFE741F20000C4F202001C
:1010600000688003002803D5FFE70120029002E01A
:1010700000200290FFE70298012851D1FFE742F2D9
:101080000001C4F20201086840F01000086008681E
:1010900020F007000860086840F00200086041F294
:1010A0000401C4F202010091086808600868086041
:1010B000086840F480600860086820F47C100860CC
:1010C000086840F4E810086041F20001C4F202012F
:1010D000086840F080700860FFE741F20000C4F249
:1010E000020000688001002801D4FFE7F5E741F223
:1010F0000401C4F20201086820F0030008600868D7
:1011000040F002000860FFE741F20400C4F2020070
:10111000006800F00C00082801D0FFE7F4E700E0C9
:10112000FFE704B07047000080B582B000900098DF
:101130000138B0F1807F03D3FFE70120019019E06F
:10114000009801384EF21401CEF2000108604FF011
:10115000FF300F2100F092FA4EF21801CEF200019A
:10116000002008604EF21002CEF20002072111604A
:101170000190FFE7019802B080BD000040F27000CE
:10118000C2F20000006840B1FFE740F27001C2F215
:101190000001086801380860FFE7704784B000204C
:1011A00003900290019041F20400C4F20200006832
:1011B00000F00C0003900398009040B1FFE7009806
:1011C00004280ED0FFE70098082814D056E040F21B
:1011D0000001C2F2000141F20020C0F27A00086072
:1011E00056E040F20001C2F2000141F20020C0F2DC
:1011F0007A0008604CE041F20400C4F20200016889
:1012000001F470110291006800F48030019002999D
:10121000022000EB91400290019860B9FFE702982C
:1012200040F60011C0F23D01484340F20001C2F215
:101230000001086021E041F20400C4F202000068ED
:10124000800300280CD5FFE7029840F60011C0F299
:101250003D01484340F20001C2F2000108600BE08A
:10126000029841F20021C0F27A01484340F20001A5
:10127000C2F200010860FFE7FFE709E040F2000169
:10128000C2F2000141F20020C0F27A000860FFE7DC
:1012900041F20400C4F202000068C0B2010941F644
:1012A0008840C0F60000405C0390039A40F20001C1
:1012B000C2F200010868D040086004B07047000026
:1012C00080B541F20002C4F20202106840F0010051
:1012D000106041F20401C4F2020108680023CFF655
:1012E000FF031840086010684FF6FF73CFF6F663EF
:1012F00018401060106820F480201060086820F406
:10130000FE00086041F20801C4F202014FF41F0020
:101310000860FFF773FE4EF60851CEF200014FF061
:101320000060086080BD000080B544F60000C4F293
:10133000000040F2266100F045F848B1FFE744F6AE
:101340000000C4F2000040F2266100F003F8FFE75D
:1013500080BD000083B00290ADF806100020ADF80B
:101360000400ADF80200BDF8060040F66A1188429C
:1013700001D1FFE7FFE79DF80700ADF80400BDF8D5
:10138000041001208840ADF80200BDF80200C043FF
:101390000299088003B0704782B001908DF8031065
:1013A0009DF8030030B1FFE70199888940F40050AF
:1013B000888105E00199888920F400508881FFE741
:1013C00002B0704786B00590ADF81210002003906F
:1013D000029001908DF80300BDF8120040F66A11EA
:1013E000884201D1FFE7FFE79DF812004009019014
:1013F000BDF8120000F01F00029002990120884001
:1014000002900198012806D1FFE70598818902988A
:101410000840029010E00198022806D1FFE70598E5
:10142000018A02980840029005E00598818A029896
:1014300008400290FFE7FFE79DF81300039003992F
:101440000120884003900598018803980840039084
:10145000029838B1FFE7039820B1FFE701208DF82B
:10146000030003E000208DF80300FFE79DF8030070
:1014700006B0704786B00590ADF812108DF81120B7
:1014800000200390029001900090BDF8120040F6F9
:101490006A11884201D1FFE7FFE7059800909DF8A7
:1014A000120040090390BDF8120000F01F000290E6
:1014B00002990120884001900398012804D1FFE798
:1014C00000980C3000900CE00398022804D1FFE74C
:1014D00000981030009003E0009814300090FFE76F
:1014E000FFE79DF8110030B1FFE7019A0099086805
:1014F0001043086005E0019A00990868904308606D
:10150000FFE706B07047000080B58CB00B900A91E1
:101510000020099008900790069005900A9880890D
:1015200008B1FFE7FFE70B9805900B98008A099038
:1015300009984CF6FF71084009900A98C1880998EB
:101540000843099009980B9908820B9880890990A3
:1015500009984EF6F311084009900A9988880A897B
:1015600010434989014309980843099009980B9948
:1015700088810B98808A099009984FF6FF410840AE
:1015800009900A98818909980843099009980B994C
:1015900088826846FFF778FC059843F60001C4F29C
:1015A0000101884203D1FFE70398089002E0029806
:1015B0000890FFE70B988089000400280AD5FFE710
:1015C0000898192148430A9909684900B0FBF1F0CD
:1015D000079009E00898192148430A990968890089
:1015E000B0FBF1F00790FFE7079848F21F51C5F2F2
:1015F000EB11A0FB01016FF00F0000EA5100099010
:10160000079A09980009642100FB112006900B98A5
:1016100080890004002810D5FFE70699322000EBEE
:10162000C10048F21F51C5F2EB11A0FB0110C0F33D
:1016300042110998084309900FE00699322000EB07
:10164000011048F21F51C5F2EB11A0FB0110C0F3CD
:101650004311099808430990FFE709980B990881FD
:101660000CB080BD82B00190ADF80210BDF8020050
:101670006FF35F200199888002B0704782B08DF8C7
:10168000070000919DF9070000280AD4FFE70098A1
:1016900000019DF907104EF20042CEF2000288547C
:1016A0000BE0009800019DF8071001F00F014EF6C5
:1016B0001452CEF200028854FFE702B070470000D7
:1016C00080B5BCB000201F903B904FF40040FFF766
:1016D00055FB0C2001212391FFF79EFB1F988021D1
:1016E000ADF8E8108DF8EB00022020908DF8EA00AC
:1016F00040F60000C4F201003AA91E91FFF71CF960
:101700001E991F9A209803232193ADF8E8308DF895
:10171000EB208DF8EA0040F60040C4F20100FFF72C
:101720000BF923994FF40070FFF776FB42F200406B
:10173000C4F201002490FEF7B1FD1F9B2199239A6A
:10174000249835938DF8D8208DF8D9204FF4602C4B
:10175000CDF8DCC038938DF8E410072322931946A6
:10176000FEF75AFE209A229B24980821FEF754FE89
:10177000219A229B24980921FEF74EFE249835A930
:10178000FEF7FCFD23992498FEF75CFD239924982D
:10179000FEF76EFD2498FEF7FDFEFFE742F20040E3
:1017A000C4F20100FEF7D2FD08B1FFE7F6E742F20E
:1017B0000040C4F20100FEF70DFFFFE742F20040D7
:1017C000C4F20100FEF7AAFD08B1FFE7F6E7012128
:1017D0001D910846FFF7E8FA0820C4F202000990BC
:1017E000FEF742FF099800211C9134912022329289
:1017F0004FF400521B9233924FF4807230924FF4A8
:1018000080621292319280222F922E912C9103218C
:1018100010912D9142F24C41C4F201012A9140F203
:101820006801C2F200012B912AA9FFF73BF8099841
:101830001D9A02210B91FFF71DF809981D99FEF7DB
:10184000FBFE1C991D980B228DF8A4208DF8A51085
:101850008DF8A6108DF8A70029A80F90FFF738FA89
:10186000FFF79CFC40F20000C2F20000006844F662
:10187000D351C1F26201A0FB01108009FFF754FCB3
:101880001D991D20FFF7C8FA10981299ADF8E810BD
:101890008DF8EA00182011908DF8EB0040F600401A
:1018A000C4F201000A903AA91491FFF745F80A988A
:1018B00014994FF40062ADF8E820042213928DF8D9
:1018C000EB20FFF739F80A98149942F26032ADF82C
:1018D000E82048228DF8EB20FFF72EF80B9814999A
:1018E0007F221992ADF8E8208DF8EA0010200C90C4
:1018F0008DF8EB0040F60000C4F201001890FFF7ED
:101900001BF80B9A0C9814991B9BADF8E8308DF8D6
:10191000EA208DF8EB0041F20000C4F201001A90B9
:10192000FFF70AF81D994FF48020FFF759FA1C9829
:101930004FF4E1312591ADF89800ADF89A00ADF87B
:101940009C00ADF8A0000C201590ADF89E0044F668
:101950000000C4F200000D9025A91691FFF7D4FDF8
:101960000D981D99FFF718FD0D981D9A40F22661FC
:10197000FFF780FD0F981C9A1D9927230E938DF871
:10198000A4308DF8A5208DF8A6208DF8A710FFF7BC
:101990009FF90D981D9A40F22551FFF76BFD0E9BA4
:1019A0000F981C9A1D998DF8A4308DF8A5208DF8FC
:1019B000A6208DF8A710FFF78BF91D990520FFF7DA
:1019C0002BFA109B119A149918984FF4007CADF8DB
:1019D000E8C08DF8EA308DF8EB20FEF7ADFF129BE2
:1019E000139A14991898ADF8E8308DF8EB20FEF7AB
:1019F000A3FF1D994FF48040FFF70EFA1598169932
:101A00001C9A4FF416532593ADF89820ADF89A2000
:101A1000ADF89C20ADF8A020ADF89E0043F6000084
:101A2000C4F201001790FFF76FFD17981D99FFF79B
:101A3000B3FC189819991D9AFFF75CF81A981B992E
:101A40001D9AFFF757F86420FEF762FF189819995E
:101A50001C9AFFF74FF81A981B991C9AFFF74AF83F
:101A60001D9942F20040C4F20100FEF79DFDFFE720
:101A700040F60040C4F201002021FFF721F8C00722
:101A800008B1FFE712E044F60000C4F20000312183
:101A90000891FFF7E7FD089943F60000C4F2010042
:101AA000FFF7E0FDC820FFF73BF8FFE740F60040F6
:101AB000C4F201004FF40071FFF702F8C00708B14B
:101AC000FFE712E044F60000C4F200003321079162
:101AD000FFF7C8FD079943F60000C4F20100FFF7C5
:101AE000C1FDC820FFF71CF8FFE740F60040C4F234
:101AF00001004FF48071FEF7E3FFC00708B1FFE774
:101B000012E044F60000C4F2000032210691FFF713
:101B1000A9FD069943F60000C4F20100FFF7A2FDFB
:101B2000C820FEF7FDFFFFE740F60040C4F20100C9
:101B30004021FEF7C5FFC00708B1FFE712E044F6F9
:101B40000000C4F2000034210591FFF78BFD0599D8
:101B500043F60000C4F20100FFF784FDC820FEF741
:101B6000DFFFFFE740F60040C4F201004FF40051F0
:101B7000FEF7A6FFC00708B1FFE712E044F6000039
:101B8000C4F200006F210491FFF76CFD049943F645
:101B90000000C4F20100FFF765FDC820FEF7C0FF9A
:101BA000FFE740F26800C2F200004088B0F57A6FAB
:101BB00013DBFFE744F60000C4F200007521039137
:101BC000FFF750FD039943F60000C4F20100FFF750
:101BD00049FDC820FEF7A4FFFFE740F26800C2F20B
:101BE00000004088B0F5487F13DCFFE744F60000B2
:101BF000C4F2000064210291FFF734FD029943F61C
:101C00000000C4F20100FFF72DFDC820FEF788FF99
:101C1000FFE740F26800C2F200000088B0F57A6F7A
:101C200013DBFFE744F60000C4F2000072210191CB
:101C3000FFF718FD019943F60000C4F20100FFF719
:101C400011FDC820FEF76CFFFFE740F26800C2F20A
:101C500000000088B0F5487F13DCFFE744F6000081
:101C6000C4F200006C210091FFF7FCFC009943F6E0
:101C70000000C4F20100FFF7F5FCC820FEF750FF9A
:101C8000FFE7F5E60204060800000000000000007F
:101C90000102030406070809000000000102030412
:101CA0000102030406070809C81C00080000002000
:101CB0000400000028010008CC1C000808000020D7
:0C1CC000700600004401000800A24A0465
:040000050800018965
:00000001FF
